S0100000727562796C6966652E73726563B2
S113000010C02AC029C028C066C026C025C024C08C
S113001023C023C021C020C01FC01EC01DC01CC0DF
S11300201BC011271FBFCFEBD0E0DEBFCDBF20E048
S1130030A4E4B0E001C01D93AE34B207E1F720E0C0
S1130040A0E4B0E0E4EAF7E402C031913D93A434C3
S1130050B207D9F721D284C3D3CF1F930F930FB71D
S11300600F9310E04F935F936F93A89565A154A1EC
S113007041E0561708F440E066A154A1561708F071
S1130080426067A154A1561708F0446068A154A1C6
S1130090561708F0486069A154A1561708F040614A
S11300A06AA154A1561708F040626BA154A15617D7
S11300B008F040646CA154A1561708F0406842B996
S11300C044A14F5F44A96F915F914F910F910FBF6E
S11300D00F911F9118951F930F930FB70F9310E073
S11300E04F9341B7406441BF4F910F910FBF0F91A0
S11300F01F91189550E040E0583051F0E52FF0E0A2
S1130100EB5BFF4F6081461708F440815F5FF4CFDB
S11301105DA94423C1F041501DA950E0583051F06D
S1130120E52FF0E0EB5BFF4F6081461708F4408356
S11301305F5FF4CF5DA963EF71E061507040E9F750
S113014000C00000E6CF0895CF93DF93C0E4D6E06B
S11301508BD26EE170E0CAD1833091077CF4813098
S11301609107CCF4892B11F57FD268E070E0BED101
S1130170E82FF92FEB5BFF4F41EE16C08630910755
S1130180ACF472D268E070E0B1D1E82FF92FEB5BE8
S1130190FF4F44E109C068D268E070E0A7D1E82FBE
S11301A0F92FEB5BFF4F47E3408309C05DD268E062
S11301B070E09CD1E82FF92FEB5BFF4F108347E8E9
S11301C053E141505040E9F700C00000C150D10B49
S11301D009F0BECFDF91CF91089543E061EE1DA9F0
S11301E05DA1513E60F457A987E893E181509040A6
S11301F0E9F700C000005DA15F5F5DA9F1CF6DA9C3
S11302005DA1552361F057A987E893E1815090409F
S1130210E9F700C000005DA151505DA9F1CF415044
S1130220F1F608952F933F93CF93DF93CDB7DEB7C5
S1130230C054D10B0FB7F894DEBF0FBFCDBF40E45D
S1130240E4E6F7E4AC2FBD2FAF5FBF4F01910D93F0
S11302504A95E1F7811376C01DA92FEF30E04DA137
S1130260403408F0EDC04FEF41505DA1552309F42F
S11302705CC0E22FF32FE41BF10BE23EF107ECF438
S1130280A1E0B0E0AC0FBD1FA50FB11F6C916830A9
S113029030F4A62FB0E0AB5BBF4F8C9101C080E07F
S11302A090E08E179F074CF4683038F4E62FF0E0A6
S11302B0EB5BFF4F642F609560835230B0F147339E
S11302C070F0EC2FFD2FE50FF11FE081E83038F4DA
S11302D0F0E0EB5BFF4F6081461708F44083523037
S11302E021F1443180F0EFEFFFEFEC0FFD1FE50F3C
S11302F0F11FE081E83038F4F0E0EB5BFF4F608100
S1130300461708F44083533081F0EEEFFFEFEC0F13
S1130310FD1FE50FF11FE081E83038F4F0E0EB5BFE
S1130320FF4F5081451708F440836FE871E0615036
S11303307040E9F700C00000411396CF4DA14F5F14
S11303404DA98DCF4FE34DA92FEF30E04DA14423AC
S113035009F476C04FEF41506DA170E06F3371071F
S11303600CF061C0E22FF32FE41BF10BE23EF10726
S1130370ECF4A1E0B0E0AC0FBD1FA60FB71F5C9179
S1130380583030F4A52FB0E0AB5BBF4F8C9101C067
S113039080E090E08E179F074CF4583038F4E52F36
S11303A0F0E0EB5BFF4F542F509550836E33710791
S11303B0D1F1473380F0E2E0F0E0EC0FFD1FE60FEF
S11303C0F71FE081E83038F4F0E0EB5BFF4F508139
S11303D0451708F440836D33710729F1443180F0E7
S11303E0E3E0F0E0EC0FFD1FE60FF71FE081E830DB
S11303F038F4F0E0EB5BFF4F5081451708F440837D
S11304006C33710781F0E4E0F0E0EC0FFD1FE60FC0
S1130410F71FE081E83038F4F0E0EB5BFF4F5081E8
S1130420451708F440836FE871E061507040E9F7C4
S113043000C0000041138FCF4DA141504DA986CF7C
S1130440C05CDF4F0FB7F894DEBF0FBFCDBFDF91A5
S1130450CF913F912F9108954DDE11B94AB7416074
S11304604ABF4AB741604ABF88954AB74E7F4ABFE0
S11304704AB741604ABF88954AB74E7F4ABF4AB7D8
S113048041604ABF88954AB74E7F4ABF4AB74E7FFC
S11304904ABF4FEF41B9089548ED4CBF58E051BFF2
S11304A04CBF51E651BF4CBF41E046BF4FEF41B98D
S11304B042B94DE145BF40E844BBC29AC99A16BB54
S11304C046B5426046BD87EA91E0D2D04AB7417F43
S11304D044604ABF789438DEBFDF80E0A3DEBCDF2F
S11304E07CDEBADF81E09EDEB7DFF5CF97FB072F16
S11304F016F4009506D077FD08D00BD007FD05D083
S11305003EF4909581959F4F0895709561957F4F26
S11305100895AA1BBB1B51E107C0AA1FBB1FA61746
S1130520B70710F0A61BB70B881F991F5A95A9F798
S113053080959095682F792F8A2F9B2F08952F935C
S11305403F93CF93DF93CDB7DEB7CA50D10B0FB72C
S1130550F894DEBF0FBFCDBFC65FDF4F98838A9389
S1130560C950D040A82FB92F4D915D916D917C91C8
S1130570411751076107710721F444E259ED6BE516
S113058077E0972F862F752F642F2DE133EF41E00D
S113059050E0A3D0CF5FDF4F299339934993588319
S11305A0C450D040462F572F682F792F1F931F9385
S11305B081E48F9387EA8F93972F862F752F642F6B
S11305C064D00F910F910F910F91CB5FDF4F69931F
S11305D0799389939883C850D0404FEF4F934F93AA
S11305E044EF4F934CEE4F93CF5FDF4F6991799176
S11305F089919881C450D04048D00F910F910F91A8
S11306000F91462F572F682F792FCB5FDF4F89919A
S11306109991A991B881C850D040480F591F6A1FB9
S11306207B1F77FF04C04150510B610B7048C75FBB
S1130630DF4FA991B881CA50D0404D935D936D931B
S11306407C93A350B040842F952F9F77C65FDF4FD4
S11306500FB7F894DEBF0FBFCDBFDF91CF913F91AD
S11306602F9108956CDF089580E490E068DF089589
S1130670482F592F60E070E0E0E4F0E0419351939B
S113068061937083E350F0400895ADB7BEB7AD5F9A
S1130690BF4F2F933F932D913D914D915C91EE2748
S11306A0FF27AA27BB2708C0A20FB31FE41FF51F0B
S11306B0220F331F441F551F96958795779567958D
S11306C098F37040A9F78050904091F76A2F7B2FE0
S11306D08E2F9F2F3F912F910895052F97FB16F48E
S11306E000950FD057FD05D014D007FD02D046F475
S11306F008C050954095309521953F4F4F4F5F4F1F
S1130700089590958095709561957F4F8F4F9F4F79
S11307100895A1E21A2FAA1BBB1BEA2FFB2F0DC0C1
S1130720AA1FBB1FEE1FFF1FA217B307E407F5079D
S113073020F0A21BB30BE40BF50B661F771F881F79
S1130740991F1A9569F76095709580959095262F55
S1130750372F482F592F6A2F7B2F8E2F9F2F0895C5
S1070760F894FFCF37
S113076463636363070500010403060705000104CA
S11307740306070500010403060705000104030634
S11307840705000104030607050001040306070521
S1130794000104030607050001040306636363639D
S10707A4010000004C
S9030000FC
